{
  "_format": "hh-sol-artifact-1",
  "contractName": "TasksV1",
  "sourceName": "contracts/TasksV1.sol",
  "abi": [
    {
      "anonymous": false,
      "inputs": [
        {
          "indexed": true,
          "internalType": "address",
          "name": "previousOwner",
          "type": "address"
        },
        {
          "indexed": true,
          "internalType": "address",
          "name": "newOwner",
          "type": "address"
        }
      ],
      "name": "OwnershipTransferred",
      "type": "event"
    },
    {
      "inputs": [
        {
          "internalType": "uint256",
          "name": "",
          "type": "uint256"
        },
        {
          "internalType": "uint256",
          "name": "",
          "type": "uint256"
        }
      ],
      "name": "applicants",
      "outputs": [
        {
          "internalType": "address",
          "name": "",
          "type": "address"
        }
      ],
      "stateMutability": "view",
      "type": "function"
    },
    {
      "inputs": [
        {
          "internalType": "address",
          "name": "",
          "type": "address"
        },
        {
          "internalType": "uint256",
          "name": "",
          "type": "uint256"
        }
      ],
      "name": "appliedTasks",
      "outputs": [
        {
          "internalType": "uint256",
          "name": "",
          "type": "uint256"
        }
      ],
      "stateMutability": "view",
      "type": "function"
    },
    {
      "inputs": [
        {
          "internalType": "uint256",
          "name": "taskId",
          "type": "uint256"
        }
      ],
      "name": "applyTask",
      "outputs": [],
      "stateMutability": "nonpayable",
      "type": "function"
    },
    {
      "inputs": [
        {
          "internalType": "uint256",
          "name": "taskId",
          "type": "uint256"
        }
      ],
      "name": "cancelTask",
      "outputs": [],
      "stateMutability": "nonpayable",
      "type": "function"
    },
    {
      "inputs": [
        {
          "internalType": "uint256",
          "name": "taskId",
          "type": "uint256"
        },
        {
          "internalType": "address",
          "name": "addr",
          "type": "address"
        }
      ],
      "name": "checkAppliedTask",
      "outputs": [
        {
          "internalType": "bool",
          "name": "",
          "type": "bool"
        }
      ],
      "stateMutability": "view",
      "type": "function"
    },
    {
      "inputs": [
        {
          "internalType": "uint256",
          "name": "duration",
          "type": "uint256"
        },
        {
          "internalType": "string",
          "name": "jobDesc",
          "type": "string"
        }
      ],
      "name": "createTask",
      "outputs": [],
      "stateMutability": "payable",
      "type": "function"
    },
    {
      "inputs": [
        {
          "internalType": "address",
          "name": "",
          "type": "address"
        },
        {
          "internalType": "uint256",
          "name": "",
          "type": "uint256"
        }
      ],
      "name": "createdTasks",
      "outputs": [
        {
          "internalType": "uint256",
          "name": "",
          "type": "uint256"
        }
      ],
      "stateMutability": "view",
      "type": "function"
    },
    {
      "inputs": [
        {
          "internalType": "uint256",
          "name": "taskId",
          "type": "uint256"
        },
        {
          "internalType": "uint8",
          "name": "providerRating",
          "type": "uint8"
        },
        {
          "internalType": "string",
          "name": "commentForProvider",
          "type": "string"
        }
      ],
      "name": "failTask",
      "outputs": [],
      "stateMutability": "nonpayable",
      "type": "function"
    },
    {
      "inputs": [
        {
          "internalType": "enum TasksV1.TaskStatus",
          "name": "status",
          "type": "uint8"
        }
      ],
      "name": "getActiveTasks",
      "outputs": [
        {
          "components": [
            {
              "internalType": "uint256",
              "name": "createdTime",
              "type": "uint256"
            },
            {
              "internalType": "uint256",
              "name": "startTime",
              "type": "uint256"
            },
            {
              "internalType": "uint256",
              "name": "duration",
              "type": "uint256"
            },
            {
              "internalType": "uint256",
              "name": "salary",
              "type": "uint256"
            },
            {
              "internalType": "uint256",
              "name": "deposit",
              "type": "uint256"
            },
            {
              "internalType": "address",
              "name": "creator",
              "type": "address"
            },
            {
              "internalType": "address",
              "name": "provider",
              "type": "address"
            },
            {
              "internalType": "enum TasksV1.TaskStatus",
              "name": "status",
              "type": "uint8"
            },
            {
              "internalType": "string",
              "name": "jobDesc",
              "type": "string"
            },
            {
              "internalType": "string",
              "name": "submission",
              "type": "string"
            },
            {
              "internalType": "string",
              "name": "disputeResult",
              "type": "string"
            }
          ],
          "internalType": "struct TasksV1.Task[]",
          "name": "",
          "type": "tuple[]"
        }
      ],
      "stateMutability": "view",
      "type": "function"
    },
    {
      "inputs": [
        {
          "internalType": "uint256",
          "name": "taskId",
          "type": "uint256"
        }
      ],
      "name": "getApplicant",
      "outputs": [
        {
          "internalType": "address[]",
          "name": "",
          "type": "address[]"
        }
      ],
      "stateMutability": "view",
      "type": "function"
    },
    {
      "inputs": [
        {
          "internalType": "address",
          "name": "addr",
          "type": "address"
        }
      ],
      "name": "getAppliedTask",
      "outputs": [
        {
          "internalType": "uint256[]",
          "name": "",
          "type": "uint256[]"
        }
      ],
      "stateMutability": "view",
      "type": "function"
    },
    {
      "inputs": [
        {
          "internalType": "address",
          "name": "addr",
          "type": "address"
        }
      ],
      "name": "getCreatedTask",
      "outputs": [
        {
          "internalType": "uint256[]",
          "name": "",
          "type": "uint256[]"
        }
      ],
      "stateMutability": "view",
      "type": "function"
    },
    {
      "inputs": [],
      "name": "owner",
      "outputs": [
        {
          "internalType": "address",
          "name": "",
          "type": "address"
        }
      ],
      "stateMutability": "view",
      "type": "function"
    },
    {
      "inputs": [
        {
          "internalType": "address",
          "name": "",
          "type": "address"
        },
        {
          "internalType": "uint256",
          "name": "",
          "type": "uint256"
        }
      ],
      "name": "provideredTasks",
      "outputs": [
        {
          "internalType": "uint256",
          "name": "",
          "type": "uint256"
        }
      ],
      "stateMutability": "view",
      "type": "function"
    },
    {
      "inputs": [
        {
          "internalType": "uint256",
          "name": "taskId",
          "type": "uint256"
        },
        {
          "internalType": "uint8",
          "name": "creatorRating",
          "type": "uint8"
        },
        {
          "internalType": "string",
          "name": "commentForCreator",
          "type": "string"
        }
      ],
      "name": "rateCreator",
      "outputs": [],
      "stateMutability": "nonpayable",
      "type": "function"
    },
    {
      "inputs": [],
      "name": "renounceOwnership",
      "outputs": [],
      "stateMutability": "nonpayable",
      "type": "function"
    },
    {
      "inputs": [
        {
          "internalType": "uint256",
          "name": "taskId",
          "type": "uint256"
        }
      ],
      "name": "requestDispute",
      "outputs": [],
      "stateMutability": "nonpayable",
      "type": "function"
    },
    {
      "inputs": [
        {
          "internalType": "uint256",
          "name": "taskId",
          "type": "uint256"
        },
        {
          "internalType": "string",
          "name": "prove",
          "type": "string"
        },
        {
          "internalType": "uint8",
          "name": "creatorPercentage",
          "type": "uint8"
        },
        {
          "internalType": "uint8",
          "name": "providerPercentage",
          "type": "uint8"
        }
      ],
      "name": "resolveDispute",
      "outputs": [],
      "stateMutability": "nonpayable",
      "type": "function"
    },
    {
      "inputs": [
        {
          "internalType": "uint256",
          "name": "taskId",
          "type": "uint256"
        },
        {
          "internalType": "uint8",
          "name": "providerRating",
          "type": "uint8"
        },
        {
          "internalType": "string",
          "name": "commentForProvider",
          "type": "string"
        }
      ],
      "name": "setTaskCompleted",
      "outputs": [],
      "stateMutability": "nonpayable",
      "type": "function"
    },
    {
      "inputs": [
        {
          "internalType": "uint256",
          "name": "taskId",
          "type": "uint256"
        },
        {
          "internalType": "address",
          "name": "provider",
          "type": "address"
        }
      ],
      "name": "startTask",
      "outputs": [],
      "stateMutability": "nonpayable",
      "type": "function"
    },
    {
      "inputs": [
        {
          "internalType": "uint256",
          "name": "taskId",
          "type": "uint256"
        },
        {
          "internalType": "string",
          "name": "submission",
          "type": "string"
        }
      ],
      "name": "submitResult",
      "outputs": [],
      "stateMutability": "nonpayable",
      "type": "function"
    },
    {
      "inputs": [],
      "name": "taskCount",
      "outputs": [
        {
          "internalType": "uint256",
          "name": "",
          "type": "uint256"
        }
      ],
      "stateMutability": "view",
      "type": "function"
    },
    {
      "inputs": [
        {
          "internalType": "uint256",
          "name": "",
          "type": "uint256"
        }
      ],
      "name": "tasks",
      "outputs": [
        {
          "internalType": "uint256",
          "name": "createdTime",
          "type": "uint256"
        },
        {
          "internalType": "uint256",
          "name": "startTime",
          "type": "uint256"
        },
        {
          "internalType": "uint256",
          "name": "duration",
          "type": "uint256"
        },
        {
          "internalType": "uint256",
          "name": "salary",
          "type": "uint256"
        },
        {
          "internalType": "uint256",
          "name": "deposit",
          "type": "uint256"
        },
        {
          "internalType": "address",
          "name": "creator",
          "type": "address"
        },
        {
          "internalType": "address",
          "name": "provider",
          "type": "address"
        },
        {
          "internalType": "enum TasksV1.TaskStatus",
          "name": "status",
          "type": "uint8"
        },
        {
          "internalType": "string",
          "name": "jobDesc",
          "type": "string"
        },
        {
          "internalType": "string",
          "name": "submission",
          "type": "string"
        },
        {
          "internalType": "string",
          "name": "disputeResult",
          "type": "string"
        }
      ],
      "stateMutability": "view",
      "type": "function"
    },
    {
      "inputs": [
        {
          "internalType": "uint256",
          "name": "",
          "type": "uint256"
        }
      ],
      "name": "tasksRating",
      "outputs": [
        {
          "internalType": "uint8",
          "name": "creatorRating",
          "type": "uint8"
        },
        {
          "internalType": "uint8",
          "name": "providerRating",
          "type": "uint8"
        },
        {
          "internalType": "string",
          "name": "commentForCreator",
          "type": "string"
        },
        {
          "internalType": "string",
          "name": "commentForProvider",
          "type": "string"
        }
      ],
      "stateMutability": "view",
      "type": "function"
    },
    {
      "inputs": [
        {
          "internalType": "address",
          "name": "newOwner",
          "type": "address"
        }
      ],
      "name": "transferOwnership",
      "outputs": [],
      "stateMutability": "nonpayable",
      "type": "function"
    },
    {
      "inputs": [
        {
          "internalType": "uint32",
          "name": "_unlockTime",
          "type": "uint32"
        }
      ],
      "name": "updateUnlockTime",
      "outputs": [],
      "stateMutability": "nonpayable",
      "type": "function"
    },
    {
      "inputs": [
        {
          "internalType": "uint256",
          "name": "taskId",
          "type": "uint256"
        }
      ],
      "name": "withdrawApplication",
      "outputs": [],
      "stateMutability": "nonpayable",
      "type": "function"
    },
    {
      "inputs": [
        {
          "internalType": "uint256",
          "name": "taskId",
          "type": "uint256"
        }
      ],
      "name": "withdrawDeposit",
      "outputs": [],
      "stateMutability": "nonpayable",
      "type": "function"
    }
  ],
  "bytecode": "0x60806040526001805562278d00600860006101000a81548163ffffffff021916908363ffffffff1602179055503480156200003957600080fd5b506200005a6200004e6200006060201b60201c565b6200006860201b60201c565b6200012c565b600033905090565b60008060009054906101000a900473ffffffffffffffffffffffffffffffffffffffff169050816000806101000a81548173ffffffffffffffffffffffffffffffffffffffff021916908373ffffffffffffffffffffffffffffffffffffffff1602179055508173ffffffffffffffffffffffffffffffffffffffff168173ffffffffffffffffffffffffffffffffffffffff167f8be0079c531659141344cd1fd0a4f28419497f9722a3daafe3b4186f6b6457e060405160405180910390a35050565b614bbb806200013c6000396000f3fe6080604052600436106101b75760003560e01c80638da5cb5b116100ec578063c6930a451161008a578063eff4fca911610064578063eff4fca914610637578063f1d5314a14610677578063f2fde38b146106a0578063fb8360eb146106c9576101b7565b8063c6930a45146105a8578063e25aa1db146105d1578063eea3f82d146105fa576101b7565b8063abf2836d116100c6578063abf2836d146104ee578063b6cb58a51461052b578063bfc2d0eb14610556578063c41a49d51461057f576101b7565b80638da5cb5b1461045d578063a6d87df414610488578063ab957b13146104c5576101b7565b80635e61235a1161015957806380d929dd1161013357806380d929dd14610387578063841c908d146103b05780638c0dd79a146103ed5780638d97767214610416576101b7565b80635e61235a1461031e578063715018a6146103475780637eec20a81461035e576101b7565b806333289a461161019557806333289a461461025257806337b9fcf41461027b5780635153d4e1146102b857806357984ad6146102f5576101b7565b806316d41b94146101bc5780631c52f359146101d85780631dace9d714610215575b600080fd5b6101d660048036038101906101d1919061360d565b610706565b005b3480156101e457600080fd5b506101ff60048036038101906101fa91906136c7565b6109fc565b60405161020c9190613722565b60405180910390f35b34801561022157600080fd5b5061023c6004803603810190610237919061373d565b610b1e565b6040516102499190613828565b60405180910390f35b34801561025e57600080fd5b506102796004803603810190610274919061384a565b610bb5565b005b34801561028757600080fd5b506102a2600480360381019061029d919061389c565b610e91565b6040516102af9190613b96565b60405180910390f35b3480156102c457600080fd5b506102df60048036038101906102da9190613bb8565b61130a565b6040516102ec9190613c07565b60405180910390f35b34801561030157600080fd5b5061031c6004803603810190610317919061384a565b611358565b005b34801561032a57600080fd5b5061034560048036038101906103409190613c5b565b6115e2565b005b34801561035357600080fd5b5061035c6119d2565b005b34801561036a57600080fd5b506103856004803603810190610380919061384a565b6119e6565b005b34801561039357600080fd5b506103ae60048036038101906103a9919061384a565b611b56565b005b3480156103bc57600080fd5b506103d760048036038101906103d29190613cde565b611d32565b6040516103e49190613d2d565b60405180910390f35b3480156103f957600080fd5b50610414600480360381019061040f919061360d565b611d63565b005b34801561042257600080fd5b5061043d6004803603810190610438919061384a565b611ec0565b6040516104549b9a99989796959493929190613da1565b60405180910390f35b34801561046957600080fd5b506104726120ff565b60405161047f9190613c07565b60405180910390f35b34801561049457600080fd5b506104af60048036038101906104aa9190613cde565b612128565b6040516104bc9190613d2d565b60405180910390f35b3480156104d157600080fd5b506104ec60048036038101906104e79190613e61565b612159565b005b3480156104fa57600080fd5b5061051560048036038101906105109190613cde565b612403565b6040516105229190613d2d565b60405180910390f35b34801561053757600080fd5b50610540612434565b60405161054d9190613d2d565b60405180910390f35b34801561056257600080fd5b5061057d60048036038101906105789190613e61565b61243a565b005b34801561058b57600080fd5b506105a660048036038101906105a191906136c7565b612756565b005b3480156105b457600080fd5b506105cf60048036038101906105ca9190613e61565b612980565b005b3480156105dd57600080fd5b506105f860048036038101906105f39190613f0c565b612ba8565b005b34801561060657600080fd5b50610621600480360381019061061c919061384a565b612bd4565b60405161062e9190613fe8565b60405180910390f35b34801561064357600080fd5b5061065e6004803603810190610659919061384a565b612c75565b60405161066e9493929190614019565b60405180910390f35b34801561068357600080fd5b5061069e6004803603810190610699919061384a565b612dcf565b005b3480156106ac57600080fd5b506106c760048036038101906106c2919061373d565b612e72565b005b3480156106d557600080fd5b506106f060048036038101906106eb919061373d565b612ef6565b6040516106fd9190613828565b60405180910390f35b60003390506000604051806101600160405280428152602001600081526020018581526020013481526020013481526020018373ffffffffffffffffffffffffffffffffffffffff168152602001600073ffffffffffffffffffffffffffffffffffffffff1681526020016000600581111561078557610784613904565b5b815260200184815260200160405180602001604052806000815250815260200160405180602001604052806000815250815250905060006001549050600160008154809291906107d49061409b565b91905055506000600260008573ffffffffffffffffffffffffffffffffffffffff1673ffffffffffffffffffffffffffffffffffffffff16815260200190815260200160002090508082908060018154018082558091505060019003906000526020600020016000909190919091505580600260008673ffffffffffffffffffffffffffffffffffffffff1673ffffffffffffffffffffffffffffffffffffffff16815260200190815260200160002090805461089292919061329e565b508260066000848152602001908152602001600020600082015181600001556020820151816001015560408201518160020155606082015181600301556080820151816004015560a08201518160050160006101000a81548173ffffffffffffffffffffffffffffffffffffffff021916908373ffffffffffffffffffffffffffffffffffffffff16021790555060c08201518160060160006101000a81548173ffffffffffffffffffffffffffffffffffffffff021916908373ffffffffffffffffffffffffffffffffffffffff16021790555060e08201518160060160146101000a81548160ff0219169083600581111561099257610991613904565b5b02179055506101008201518160070190805190602001906109b49291906132f0565b506101208201518160080190805190602001906109d29291906132f0565b506101408201518160090190805190602001906109f09291906132f0565b50905050505050505050565b60008060056000858152602001908152602001600020805480602002602001604051908101604052809291908181526020018280548015610a9257602002820191906000526020600020905b8160009054906101000a900473ffffffffffffffffffffffffffffffffffffffff1673ffffffffffffffffffffffffffffffffffffffff1681526020019060010190808311610a48575b5050505050905060005b8151811015610b11578373ffffffffffffffffffffffffffffffffffffffff16828281518110610acf57610ace6140e4565b5b602002602001015173ffffffffffffffffffffffffffffffffffffffff161415610afe57600192505050610b18565b8080610b099061409b565b915050610a9c565b5060009150505b92915050565b6060600260008373ffffffffffffffffffffffffffffffffffffffff1673ffffffffffffffffffffffffffffffffffffffff168152602001908152602001600020805480602002602001604051908101604052809291908181526020018280548015610ba957602002820191906000526020600020905b815481526020019060010190808311610b95575b50505050509050919050565b3373ffffffffffffffffffffffffffffffffffffffff166006600083815260200190815260200160002060050160009054906101000a900473ffffffffffffffffffffffffffffffffffffffff1673ffffffffffffffffffffffffffffffffffffffff1614610c59576040517f08c379a0000000000000000000000000000000000000000000000000000000008152600401610c509061415f565b60405180910390fd5b6000600660008381526020019081526020016000206004015411610c7c57600080fd5b600580811115610c8f57610c8e613904565b5b6006600083815260200190815260200160002060060160149054906101000a900460ff166005811115610cc557610cc4613904565b5b1480610d3a575060016005811115610ce057610cdf613904565b5b6006600083815260200190815260200160002060060160149054906101000a900460ff166005811115610d1657610d15613904565b5b148015610d39575060006005600083815260200190815260200160002080549050145b5b80610dd0575060016005811115610d5457610d53613904565b5b6006600083815260200190815260200160002060060160149054906101000a900460ff166005811115610d8a57610d89613904565b5b148015610dcf5750600860009054906101000a900463ffffffff1663ffffffff166006600083815260200190815260200160002060000154610dcc919061417f565b42115b5b610e0f576040517f08c379a0000000000000000000000000000000000000000000000000000000008152600401610e0690614221565b60405180910390fd5b600060066000838152602001908152602001600020600401549050600060066000848152602001908152602001600020600401819055503373ffffffffffffffffffffffffffffffffffffffff166108fc829081150290604051600060405180830381858888f19350505050158015610e8c573d6000803e3d6000fd5b505050565b6060600080600190505b600154811015610f1657836005811115610eb857610eb7613904565b5b6006600083815260200190815260200160002060060160149054906101000a900460ff166005811115610eee57610eed613904565b5b1415610f03578180610eff9061409b565b9250505b8080610f0e9061409b565b915050610e9b565b5060008167ffffffffffffffff811115610f3357610f326134e2565b5b604051908082528060200260200182016040528015610f6c57816020015b610f59613376565b815260200190600190039081610f515790505b509050600080600190505b6001548110156112fe57856005811115610f9457610f93613904565b5b6006600083815260200190815260200160002060060160149054906101000a900460ff166005811115610fca57610fc9613904565b5b14156112eb57600660008281526020019081526020016000206040518061016001604052908160008201548152602001600182015481526020016002820154815260200160038201548152602001600482015481526020016005820160009054906101000a900473ffffffffffffffffffffffffffffffffffffffff1673ffffffffffffffffffffffffffffffffffffffff1673ffffffffffffffffffffffffffffffffffffffff1681526020016006820160009054906101000a900473ffffffffffffffffffffffffffffffffffffffff1673ffffffffffffffffffffffffffffffffffffffff1673ffffffffffffffffffffffffffffffffffffffff1681526020016006820160149054906101000a900460ff1660058111156110f2576110f1613904565b5b600581111561110457611103613904565b5b815260200160078201805461111890614270565b80601f016020809104026020016040519081016040528092919081815260200182805461114490614270565b80156111915780601f1061116657610100808354040283529160200191611191565b820191906000526020600020905b81548152906001019060200180831161117457829003601f168201915b505050505081526020016008820180546111aa90614270565b80601f01602080910402602001604051908101604052809291908181526020018280546111d690614270565b80156112235780601f106111f857610100808354040283529160200191611223565b820191906000526020600020905b81548152906001019060200180831161120657829003601f168201915b5050505050815260200160098201805461123c90614270565b80601f016020809104026020016040519081016040528092919081815260200182805461126890614270565b80156112b55780601f1061128a576101008083540402835291602001916112b5565b820191906000526020600020905b81548152906001019060200180831161129857829003601f168201915b5050505050815250508383815181106112d1576112d06140e4565b5b602002602001018190525081806112e79061409b565b9250505b80806112f69061409b565b915050610f77565b50819350505050919050565b6005602052816000526040600020818154811061132657600080fd5b906000526020600020016000915091509054906101000a900473ffffffffffffffffffffffffffffffffffffffff1681565b6000600581111561136c5761136b613904565b5b6006600083815260200190815260200160002060060160149054906101000a900460ff1660058111156113a2576113a1613904565b5b146113e2576040517f08c379a00000000000000000000000000000000000000000000000000000000081526004016113d9906142ee565b60405180910390fd5b3373ffffffffffffffffffffffffffffffffffffffff166006600083815260200190815260200160002060050160009054906101000a900473ffffffffffffffffffffffffffffffffffffffff1673ffffffffffffffffffffffffffffffffffffffff161415611487576040517f08c379a000000000000000000000000000000000000000000000000000000000815260040161147e9061435a565b60405180910390fd5b600060056000838152602001908152602001600020905080339080600181540180825580915050600190039060005260206000200160009091909190916101000a81548173ffffffffffffffffffffffffffffffffffffffff021916908373ffffffffffffffffffffffffffffffffffffffff160217905550806005600084815260200190815260200160002090805461152292919061340e565b506000600460003373ffffffffffffffffffffffffffffffffffffffff1673ffffffffffffffffffffffffffffffffffffffff16815260200190815260200160002090508083908060018154018082558091505060019003906000526020600020016000909190919091505580600460003373ffffffffffffffffffffffffffffffffffffffff1673ffffffffffffffffffffffffffffffffffffffff1681526020019081526020016000209080546115dc92919061329e565b50505050565b6115ea612f8d565b606481836115f8919061437a565b60ff161461163b576040517f08c379a0000000000000000000000000000000000000000000000000000000008152600401611632906143fd565b60405180910390fd5b6004600581111561164f5761164e613904565b5b6006600086815260200190815260200160002060060160149054906101000a900460ff16600581111561168557611684613904565b5b146116c5576040517f08c379a00000000000000000000000000000000000000000000000000000000081526004016116bc90614469565b60405180910390fd5b60036006600086815260200190815260200160002060060160146101000a81548160ff021916908360058111156116ff576116fe613904565b5b02179055508260066000868152602001908152602001600020600901908051906020019061172e9291906132f0565b506000600660008681526020019081526020016000206004015490506000600660008781526020019081526020016000206004018190555060008360ff1611801561177c575060008260ff16115b156118b157600060648460ff16836117949190614489565b61179e9190614512565b9050600081836117ae9190614543565b90506006600088815260200190815260200160002060050160009054906101000a900473ffffffffffffffffffffffffffffffffffffffff1673ffffffffffffffffffffffffffffffffffffffff166108fc839081150290604051600060405180830381858888f1935050505015801561182c573d6000803e3d6000fd5b506006600088815260200190815260200160002060060160009054906101000a900473ffffffffffffffffffffffffffffffffffffffff1673ffffffffffffffffffffffffffffffffffffffff166108fc829081150290604051600060405180830381858888f193505050501580156118a9573d6000803e3d6000fd5b5050506119cb565b60648360ff16141561193f576006600086815260200190815260200160002060050160009054906101000a900473ffffffffffffffffffffffffffffffffffffffff1673ffffffffffffffffffffffffffffffffffffffff166108fc829081150290604051600060405180830381858888f19350505050158015611939573d6000803e3d6000fd5b506119ca565b60648260ff1614156119c9576006600086815260200190815260200160002060060160009054906101000a900473ffffffffffffffffffffffffffffffffffffffff1673ffffffffffffffffffffffffffffffffffffffff166108fc829081150290604051600060405180830381858888f193505050501580156119c7573d6000803e3d6000fd5b505b5b5b5050505050565b6119da612f8d565b6119e4600061300b565b565b3373ffffffffffffffffffffffffffffffffffffffff166006600083815260200190815260200160002060050160009054906101000a900473ffffffffffffffffffffffffffffffffffffffff1673ffffffffffffffffffffffffffffffffffffffff1614611a8a576040517f08c379a0000000000000000000000000000000000000000000000000000000008152600401611a819061415f565b60405180910390fd5b60006005811115611a9e57611a9d613904565b5b6006600083815260200190815260200160002060060160149054906101000a900460ff166005811115611ad457611ad3613904565b5b14611b14576040517f08c379a0000000000000000000000000000000000000000000000000000000008152600401611b0b906145c3565b60405180910390fd5b60016006600083815260200190815260200160002060060160146101000a81548160ff02191690836005811115611b4e57611b4d613904565b5b021790555050565b3373ffffffffffffffffffffffffffffffffffffffff166006600083815260200190815260200160002060060160009054906101000a900473ffffffffffffffffffffffffffffffffffffffff1673ffffffffffffffffffffffffffffffffffffffff161480611c2757503373ffffffffffffffffffffffffffffffffffffffff166006600083815260200190815260200160002060050160009054906101000a900473ffffffffffffffffffffffffffffffffffffffff1673ffffffffffffffffffffffffffffffffffffffff16145b611c66576040517f08c379a0000000000000000000000000000000000000000000000000000000008152600401611c5d9061462f565b60405180910390fd5b60026005811115611c7a57611c79613904565b5b6006600083815260200190815260200160002060060160149054906101000a900460ff166005811115611cb057611caf613904565b5b14611cf0576040517f08c379a0000000000000000000000000000000000000000000000000000000008152600401611ce79061469b565b60405180910390fd5b60046006600083815260200190815260200160002060060160146101000a81548160ff02191690836005811115611d2a57611d29613904565b5b021790555050565b60046020528160005260406000208181548110611d4e57600080fd5b90600052602060002001600091509150505481565b3373ffffffffffffffffffffffffffffffffffffffff166006600084815260200190815260200160002060060160009054906101000a900473ffffffffffffffffffffffffffffffffffffffff1673ffffffffffffffffffffffffffffffffffffffff1614611e07576040517f08c379a0000000000000000000000000000000000000000000000000000000008152600401611dfe90614707565b60405180910390fd5b60026005811115611e1b57611e1a613904565b5b6006600084815260200190815260200160002060060160149054906101000a900460ff166005811115611e5157611e50613904565b5b14611e91576040517f08c379a0000000000000000000000000000000000000000000000000000000008152600401611e889061469b565b60405180910390fd5b80600660008481526020019081526020016000206008019080519060200190611ebb9291906132f0565b505050565b60066020528060005260406000206000915090508060000154908060010154908060020154908060030154908060040154908060050160009054906101000a900473ffffffffffffffffffffffffffffffffffffffff16908060060160009054906101000a900473ffffffffffffffffffffffffffffffffffffffff16908060060160149054906101000a900460ff1690806007018054611f6090614270565b80601f0160208091040260200160405190810160405280929190818152602001828054611f8c90614270565b8015611fd95780601f10611fae57610100808354040283529160200191611fd9565b820191906000526020600020905b815481529060010190602001808311611fbc57829003601f168201915b505050505090806008018054611fee90614270565b80601f016020809104026020016040519081016040528092919081815260200182805461201a90614270565b80156120675780601f1061203c57610100808354040283529160200191612067565b820191906000526020600020905b81548152906001019060200180831161204a57829003601f168201915b50505050509080600901805461207c90614270565b80601f01602080910402602001604051908101604052809291908181526020018280546120a890614270565b80156120f55780601f106120ca576101008083540402835291602001916120f5565b820191906000526020600020905b8154815290600101906020018083116120d857829003601f168201915b505050505090508b565b60008060009054906101000a900473ffffffffffffffffffffffffffffffffffffffff16905090565b6002602052816000526040600020818154811061214457600080fd5b90600052602060002001600091509150505481565b6002600581111561216d5761216c613904565b5b6006600085815260200190815260200160002060060160149054906101000a900460ff1660058111156121a3576121a2613904565b5b146121e3576040517f08c379a00000000000000000000000000000000000000000000000000000000081526004016121da90614773565b60405180910390fd5b3373ffffffffffffffffffffffffffffffffffffffff166006600085815260200190815260200160002060050160009054906101000a900473ffffffffffffffffffffffffffffffffffffffff1673ffffffffffffffffffffffffffffffffffffffff1614612287576040517f08c379a000000000000000000000000000000000000000000000000000000000815260040161227e906147df565b60405180910390fd5b600660008481526020019081526020016000206002015460066000858152602001908152602001600020600101546122bf919061417f565b4211612300576040517f08c379a00000000000000000000000000000000000000000000000000000000081526004016122f79061484b565b60405180910390fd5b600060066000858152602001908152602001600020600801805461232390614270565b905014612365576040517f08c379a000000000000000000000000000000000000000000000000000000000815260040161235c906148b7565b60405180910390fd5b60056006600085815260200190815260200160002060060160146101000a81548160ff0219169083600581111561239f5761239e613904565b5b0217905550816007600085815260200190815260200160002060000160016101000a81548160ff021916908360ff160217905550806007600085815260200190815260200160002060020190805190602001906123fd9291906132f0565b50505050565b6003602052816000526040600020818154811061241f57600080fd5b90600052602060002001600091509150505481565b60015481565b3373ffffffffffffffffffffffffffffffffffffffff166006600085815260200190815260200160002060050160009054906101000a900473ffffffffffffffffffffffffffffffffffffffff1673ffffffffffffffffffffffffffffffffffffffff16146124de576040517f08c379a00000000000000000000000000000000000000000000000000000000081526004016124d59061415f565b60405180910390fd5b600260058111156124f2576124f1613904565b5b6006600085815260200190815260200160002060060160149054906101000a900460ff16600581111561252857612527613904565b5b14612568576040517f08c379a000000000000000000000000000000000000000000000000000000000815260040161255f9061469b565b60405180910390fd5b60008260ff1610158015612580575060058260ff1611155b6125bf576040517f08c379a00000000000000000000000000000000000000000000000000000000081526004016125b690614923565b60405180910390fd5b6000815111612603576040517f08c379a00000000000000000000000000000000000000000000000000000000081526004016125fa9061498f565b60405180910390fd5b60036006600085815260200190815260200160002060060160146101000a81548160ff0219169083600581111561263d5761263c613904565b5b0217905550816007600085815260200190815260200160002060000160016101000a81548160ff021916908360ff1602179055508060076000858152602001908152602001600020600201908051906020019061269b9291906132f0565b50600060066000858152602001908152602001600020600401549050600060066000868152602001908152602001600020600401819055506006600085815260200190815260200160002060060160009054906101000a900473ffffffffffffffffffffffffffffffffffffffff1673ffffffffffffffffffffffffffffffffffffffff166108fc829081150290604051600060405180830381858888f1935050505015801561274f573d6000803e3d6000fd5b5050505050565b6000600581111561276a57612769613904565b5b6006600084815260200190815260200160002060060160149054906101000a900460ff1660058111156127a05761279f613904565b5b146127e0576040517f08c379a00000000000000000000000000000000000000000000000000000000081526004016127d7906142ee565b60405180910390fd5b3373ffffffffffffffffffffffffffffffffffffffff166006600084815260200190815260200160002060050160009054906101000a900473ffffffffffffffffffffffffffffffffffffffff1673ffffffffffffffffffffffffffffffffffffffff1614612884576040517f08c379a000000000000000000000000000000000000000000000000000000000815260040161287b906147df565b60405180910390fd5b61288e82826109fc565b6128cd576040517f08c379a00000000000000000000000000000000000000000000000000000000081526004016128c4906149fb565b60405180910390fd5b806006600084815260200190815260200160002060060160006101000a81548173ffffffffffffffffffffffffffffffffffffffff021916908373ffffffffffffffffffffffffffffffffffffffff16021790555060026006600084815260200190815260200160002060060160146101000a81548160ff0219169083600581111561295c5761295b613904565b5b02179055504260066000848152602001908152602001600020600101819055505050565b3373ffffffffffffffffffffffffffffffffffffffff166006600085815260200190815260200160002060060160009054906101000a900473ffffffffffffffffffffffffffffffffffffffff1673ffffffffffffffffffffffffffffffffffffffff1614612a24576040517f08c379a0000000000000000000000000000000000000000000000000000000008152600401612a1b90614707565b60405180910390fd5b60036005811115612a3857612a37613904565b5b6006600085815260200190815260200160002060060160149054906101000a900460ff166005811115612a6e57612a6d613904565b5b14612aae576040517f08c379a0000000000000000000000000000000000000000000000000000000008152600401612aa590614a67565b60405180910390fd5b60008260ff1610158015612ac6575060058260ff1611155b612b05576040517f08c379a0000000000000000000000000000000000000000000000000000000008152600401612afc90614923565b60405180910390fd5b6000815111612b49576040517f08c379a0000000000000000000000000000000000000000000000000000000008152600401612b409061498f565b60405180910390fd5b816007600085815260200190815260200160002060000160006101000a81548160ff021916908360ff16021790555080600760008581526020019081526020016000206001019080519060200190612ba29291906132f0565b50505050565b612bb0612f8d565b80600860006101000a81548163ffffffff021916908363ffffffff16021790555050565b606060056000838152602001908152602001600020805480602002602001604051908101604052809291908181526020018280548015612c6957602002820191906000526020600020905b8160009054906101000a900473ffffffffffffffffffffffffffffffffffffffff1673ffffffffffffffffffffffffffffffffffffffff1681526020019060010190808311612c1f575b50505050509050919050565b60076020528060005260406000206000915090508060000160009054906101000a900460ff16908060000160019054906101000a900460ff1690806001018054612cbe90614270565b80601f0160208091040260200160405190810160405280929190818152602001828054612cea90614270565b8015612d375780601f10612d0c57610100808354040283529160200191612d37565b820191906000526020600020905b815481529060010190602001808311612d1a57829003601f168201915b505050505090806002018054612d4c90614270565b80601f0160208091040260200160405190810160405280929190818152602001828054612d7890614270565b8015612dc55780601f10612d9a57610100808354040283529160200191612dc5565b820191906000526020600020905b815481529060010190602001808311612da857829003601f168201915b5050505050905084565b60006005811115612de357612de2613904565b5b6006600083815260200190815260200160002060060160149054906101000a900460ff166005811115612e1957612e18613904565b5b14612e59576040517f08c379a0000000000000000000000000000000000000000000000000000000008152600401612e50906142ee565b60405180910390fd5b612e6381336130cf565b50612e6e81336131d2565b5050565b612e7a612f8d565b600073ffffffffffffffffffffffffffffffffffffffff168173ffffffffffffffffffffffffffffffffffffffff161415612eea576040517f08c379a0000000000000000000000000000000000000000000000000000000008152600401612ee190614af9565b60405180910390fd5b612ef38161300b565b50565b6060600460008373ffffffffffffffffffffffffffffffffffffffff1673ffffffffffffffffffffffffffffffffffffffff168152602001908152602001600020805480602002602001604051908101604052809291908181526020018280548015612f8157602002820191906000526020600020905b815481526020019060010190808311612f6d575b50505050509050919050565b612f95613296565b73ffffffffffffffffffffffffffffffffffffffff16612fb36120ff565b73ffffffffffffffffffffffffffffffffffffffff1614613009576040517f08c379a000000000000000000000000000000000000000000000000000000000815260040161300090614b65565b60405180910390fd5b565b60008060009054906101000a900473ffffffffffffffffffffffffffffffffffffffff169050816000806101000a81548173ffffffffffffffffffffffffffffffffffffffff021916908373ffffffffffffffffffffffffffffffffffffffff1602179055508173ffffffffffffffffffffffffffffffffffffffff168173ffffffffffffffffffffffffffffffffffffffff167f8be0079c531659141344cd1fd0a4f28419497f9722a3daafe3b4186f6b6457e060405160405180910390a35050565b60008060056000858152602001908152602001600020905060005b81805490508110156131c5578373ffffffffffffffffffffffffffffffffffffffff168282815481106131205761311f6140e4565b5b9060005260206000200160009054906101000a900473ffffffffffffffffffffffffffffffffffffffff1673ffffffffffffffffffffffffffffffffffffffff1614156131b25781818154811061317a576131796140e4565b5b9060005260206000200160006101000a81549073ffffffffffffffffffffffffffffffffffffffff02191690556001925050506131cc565b80806131bd9061409b565b9150506130ea565b5060009150505b92915050565b600080600460008473ffffffffffffffffffffffffffffffffffffffff1673ffffffffffffffffffffffffffffffffffffffff168152602001908152602001600020905060005b81805490508110156132895784828281548110613239576132386140e4565b5b906000526020600020015414156132765781818154811061325d5761325c6140e4565b5b9060005260206000200160009055600192505050613290565b80806132819061409b565b915050613219565b5060009150505b92915050565b600033905090565b8280548282559060005260206000209081019282156132df5760005260206000209182015b828111156132de5782548255916001019190600101906132c3565b5b5090506132ec9190613460565b5090565b8280546132fc90614270565b90600052602060002090601f01602090048101928261331e5760008555613365565b82601f1061333757805160ff1916838001178555613365565b82800160010185558215613365579182015b82811115613364578251825591602001919060010190613349565b5b5090506133729190613460565b5090565b6040518061016001604052806000815260200160008152602001600081526020016000815260200160008152602001600073ffffffffffffffffffffffffffffffffffffffff168152602001600073ffffffffffffffffffffffffffffffffffffffff168152602001600060058111156133f3576133f2613904565b5b81526020016060815260200160608152602001606081525090565b82805482825590600052602060002090810192821561344f5760005260206000209182015b8281111561344e578254825591600101919060010190613433565b5b50905061345c9190613460565b5090565b5b80821115613479576000816000905550600101613461565b5090565b6000604051905090565b600080fd5b600080fd5b6000819050919050565b6134a481613491565b81146134af57600080fd5b50565b6000813590506134c18161349b565b92915050565b600080fd5b600080fd5b6000601f19601f8301169050919050565b7f4e487b7100000000000000000000000000000000000000000000000000000000600052604160045260246000fd5b61351a826134d1565b810181811067ffffffffffffffff82111715613539576135386134e2565b5b80604052505050565b600061354c61347d565b90506135588282613511565b919050565b600067ffffffffffffffff821115613578576135776134e2565b5b613581826134d1565b9050602081019050919050565b82818337600083830152505050565b60006135b06135ab8461355d565b613542565b9050828152602081018484840111156135cc576135cb6134cc565b5b6135d784828561358e565b509392505050565b600082601f8301126135f4576135f36134c7565b5b813561360484826020860161359d565b91505092915050565b6000806040838503121561362457613623613487565b5b6000613632858286016134b2565b925050602083013567ffffffffffffffff8111156136535761365261348c565b5b61365f858286016135df565b9150509250929050565b600073ffffffffffffffffffffffffffffffffffffffff82169050919050565b600061369482613669565b9050919050565b6136a481613689565b81146136af57600080fd5b50565b6000813590506136c18161369b565b92915050565b600080604083850312156136de576136dd613487565b5b60006136ec858286016134b2565b92505060206136fd858286016136b2565b9150509250929050565b60008115159050919050565b61371c81613707565b82525050565b60006020820190506137376000830184613713565b92915050565b60006020828403121561375357613752613487565b5b6000613761848285016136b2565b91505092915050565b600081519050919050565b600082825260208201905092915050565b6000819050602082019050919050565b61379f81613491565b82525050565b60006137b18383613796565b60208301905092915050565b6000602082019050919050565b60006137d58261376a565b6137df8185613775565b93506137ea83613786565b8060005b8381101561381b57815161380288826137a5565b975061380d836137bd565b9250506001810190506137ee565b5085935050505092915050565b6000602082019050818103600083015261384281846137ca565b905092915050565b6000602082840312156138605761385f613487565b5b600061386e848285016134b2565b91505092915050565b6006811061388457600080fd5b50565b60008135905061389681613877565b92915050565b6000602082840312156138b2576138b1613487565b5b60006138c084828501613887565b91505092915050565b600081519050919050565b600082825260208201905092915050565b6000819050602082019050919050565b6138fe81613689565b82525050565b7f4e487b7100000000000000000000000000000000000000000000000000000000600052602160045260246000fd5b6006811061394457613943613904565b5b50565b600081905061395582613933565b919050565b600061396582613947565b9050919050565b6139758161395a565b82525050565b600081519050919050565b600082825260208201905092915050565b60005b838110156139b557808201518184015260208101905061399a565b838111156139c4576000848401525b50505050565b60006139d58261397b565b6139df8185613986565b93506139ef818560208601613997565b6139f8816134d1565b840191505092915050565b600061016083016000830151613a1c6000860182613796565b506020830151613a2f6020860182613796565b506040830151613a426040860182613796565b506060830151613a556060860182613796565b506080830151613a686080860182613796565b5060a0830151613a7b60a08601826138f5565b5060c0830151613a8e60c08601826138f5565b5060e0830151613aa160e086018261396c565b50610100830151848203610100860152613abb82826139ca565b915050610120830151848203610120860152613ad782826139ca565b915050610140830151848203610140860152613af382826139ca565b9150508091505092915050565b6000613b0c8383613a03565b905092915050565b6000602082019050919050565b6000613b2c826138c9565b613b3681856138d4565b935083602082028501613b48856138e5565b8060005b85811015613b845784840389528151613b658582613b00565b9450613b7083613b14565b925060208a01995050600181019050613b4c565b50829750879550505050505092915050565b60006020820190508181036000830152613bb08184613b21565b905092915050565b60008060408385031215613bcf57613bce613487565b5b6000613bdd858286016134b2565b9250506020613bee858286016134b2565b9150509250929050565b613c0181613689565b82525050565b6000602082019050613c1c6000830184613bf8565b92915050565b600060ff82169050919050565b613c3881613c22565b8114613c4357600080fd5b50565b600081359050613c5581613c2f565b92915050565b60008060008060808587031215613c7557613c74613487565b5b6000613c83878288016134b2565b945050602085013567ffffffffffffffff811115613ca457613ca361348c565b5b613cb0878288016135df565b9350506040613cc187828801613c46565b9250506060613cd287828801613c46565b91505092959194509250565b60008060408385031215613cf557613cf4613487565b5b6000613d03858286016136b2565b9250506020613d14858286016134b2565b9150509250929050565b613d2781613491565b82525050565b6000602082019050613d426000830184613d1e565b92915050565b613d518161395a565b82525050565b600082825260208201905092915050565b6000613d738261397b565b613d7d8185613d57565b9350613d8d818560208601613997565b613d96816134d1565b840191505092915050565b600061016082019050613db7600083018e613d1e565b613dc4602083018d613d1e565b613dd1604083018c613d1e565b613dde606083018b613d1e565b613deb608083018a613d1e565b613df860a0830189613bf8565b613e0560c0830188613bf8565b613e1260e0830187613d48565b818103610100830152613e258186613d68565b9050818103610120830152613e3a8185613d68565b9050818103610140830152613e4f8184613d68565b90509c9b505050505050505050505050565b600080600060608486031215613e7a57613e79613487565b5b6000613e88868287016134b2565b9350506020613e9986828701613c46565b925050604084013567ffffffffffffffff811115613eba57613eb961348c565b5b613ec6868287016135df565b9150509250925092565b600063ffffffff82169050919050565b613ee981613ed0565b8114613ef457600080fd5b50565b600081359050613f0681613ee0565b92915050565b600060208284031215613f2257613f21613487565b5b6000613f3084828501613ef7565b91505092915050565b600081519050919050565b600082825260208201905092915050565b6000819050602082019050919050565b6000613f7183836138f5565b60208301905092915050565b6000602082019050919050565b6000613f9582613f39565b613f9f8185613f44565b9350613faa83613f55565b8060005b83811015613fdb578151613fc28882613f65565b9750613fcd83613f7d565b925050600181019050613fae565b5085935050505092915050565b600060208201905081810360008301526140028184613f8a565b905092915050565b61401381613c22565b82525050565b600060808201905061402e600083018761400a565b61403b602083018661400a565b818103604083015261404d8185613d68565b905081810360608301526140618184613d68565b905095945050505050565b7f4e487b7100000000000000000000000000000000000000000000000000000000600052601160045260246000fd5b60006140a682613491565b91507fffffffffffffffffffffffffffffffffffffffffffffffffffffffffffffffff8214156140d9576140d861406c565b5b600182019050919050565b7f4e487b7100000000000000000000000000000000000000000000000000000000600052603260045260246000fd5b7f4e6f742063726561746f72000000000000000000000000000000000000000000600082015250565b6000614149600b83613d57565b915061415482614113565b602082019050919050565b600060208201905081810360008301526141788161413c565b9050919050565b600061418a82613491565b915061419583613491565b9250827fffffffffffffffffffffffffffffffffffffffffffffffffffffffffffffffff038211156141ca576141c961406c565b5b828201905092915050565b7f43616e6e6f742077697468647261770000000000000000000000000000000000600082015250565b600061420b600f83613d57565b9150614216826141d5565b602082019050919050565b6000602082019050818103600083015261423a816141fe565b9050919050565b7f4e487b7100000000000000000000000000000000000000000000000000000000600052602260045260246000fd5b6000600282049050600182168061428857607f821691505b6020821081141561429c5761429b614241565b5b50919050565b7f5461736b206e6f7420666f756e64000000000000000000000000000000000000600082015250565b60006142d8600e83613d57565b91506142e3826142a2565b602082019050919050565b60006020820190508181036000830152614307816142cb565b9050919050565b7f596f7520617265207468652063726561746f7200000000000000000000000000600082015250565b6000614344601383613d57565b915061434f8261430e565b602082019050919050565b6000602082019050818103600083015261437381614337565b9050919050565b600061438582613c22565b915061439083613c22565b92508260ff038211156143a6576143a561406c565b5b828201905092915050565b7f50657263656e74616765206e6f7420636f727265637400000000000000000000600082015250565b60006143e7601683613d57565b91506143f2826143b1565b602082019050919050565b60006020820190508181036000830152614416816143da565b9050919050565b7f4e6f7420756e6465722064697361677265656d656e7400000000000000000000600082015250565b6000614453601683613d57565b915061445e8261441d565b602082019050919050565b6000602082019050818103600083015261448281614446565b9050919050565b600061449482613491565b915061449f83613491565b9250817fffffffffffffffffffffffffffffffffffffffffffffffffffffffffffffffff04831182151516156144d8576144d761406c565b5b828202905092915050565b7f4e487b7100000000000000000000000000000000000000000000000000000000600052601260045260246000fd5b600061451d82613491565b915061452883613491565b925082614538576145376144e3565b5b828204905092915050565b600061454e82613491565b915061455983613491565b92508282101561456c5761456b61406c565b5b828203905092915050565b7f5461736b206e6f74206163746976650000000000000000000000000000000000600082015250565b60006145ad600f83613d57565b91506145b882614577565b602082019050919050565b600060208201905081810360008301526145dc816145a0565b9050919050565b7f4e6f742070726f7669646572206f722063726561746f72000000000000000000600082015250565b6000614619601783613d57565b9150614624826145e3565b602082019050919050565b600060208201905081810360008301526146488161460c565b9050919050565b7f4e6f742073746172746564000000000000000000000000000000000000000000600082015250565b6000614685600b83613d57565b91506146908261464f565b602082019050919050565b600060208201905081810360008301526146b481614678565b9050919050565b7f4e6f742070726f76696465720000000000000000000000000000000000000000600082015250565b60006146f1600c83613d57565b91506146fc826146bb565b602082019050919050565b60006020820190508181036000830152614720816146e4565b9050919050565b7f4e6f74206f6e20676f696e67207461736b000000000000000000000000000000600082015250565b600061475d601183613d57565b915061476882614727565b602082019050919050565b6000602082019050818103600083015261478c81614750565b9050919050565b7f596f7520617265206e6f74207468652063726561746f72000000000000000000600082015250565b60006147c9601783613d57565b91506147d482614793565b602082019050919050565b600060208201905081810360008301526147f8816147bc565b9050919050565b7f4e6f7420656e6465640000000000000000000000000000000000000000000000600082015250565b6000614835600983613d57565b9150614840826147ff565b602082019050919050565b6000602082019050818103600083015261486481614828565b9050919050565b7f50726f7669646572207375626d69747465640000000000000000000000000000600082015250565b60006148a1601283613d57565b91506148ac8261486b565b602082019050919050565b600060208201905081810360008301526148d081614894565b9050919050565b7f526174696e672072616e67652073686f756c642062652030202d203500000000600082015250565b600061490d601c83613d57565b9150614918826148d7565b602082019050919050565b6000602082019050818103600083015261493c81614900565b9050919050565b7f4d697373696e6720636f6d6d656e740000000000000000000000000000000000600082015250565b6000614979600f83613d57565b915061498482614943565b602082019050919050565b600060208201905081810360008301526149a88161496c565b9050919050565b7f50726f766964657220646964206e6f74206170706c792074686973206a6f6200600082015250565b60006149e5601f83613d57565b91506149f0826149af565b602082019050919050565b60006020820190508181036000830152614a14816149d8565b9050919050565b7f4e6f7420636f6d706c6574656400000000000000000000000000000000000000600082015250565b6000614a51600d83613d57565b9150614a5c82614a1b565b602082019050919050565b60006020820190508181036000830152614a8081614a44565b9050919050565b7f4f776e61626c653a206e6577206f776e657220697320746865207a65726f206160008201527f6464726573730000000000000000000000000000000000000000000000000000602082015250565b6000614ae3602683613d57565b9150614aee82614a87565b604082019050919050565b60006020820190508181036000830152614b1281614ad6565b9050919050565b7f4f776e61626c653a2063616c6c6572206973206e6f7420746865206f776e6572600082015250565b6000614b4f602083613d57565b9150614b5a82614b19565b602082019050919050565b60006020820190508181036000830152614b7e81614b42565b905091905056fea26469706673582212200ee2e657d64da4be925ed9e9cca1ba63159ae2d4ca936341c7ac6b0af2435e7564736f6c63430008090033",
  "linkReferences": {},
  "deployedLinkReferences": {}
}